:020000040800F2
:10000000080A002079020008F53D00087939000847
:10001000F13D00080D0600086946000800000000D8
:100020000000000000000000000000007D3F00080C
:100030001D06000800000000793F0008813F00080D
:10004000930200089302000893020008930200083C
:10005000930200089302000893020008930200082C
:10006000930200089302000893020008110600089A
:10007000930200089302000893020008930200080C
:100080009302000800000000930200089302000899
:1000900093020008930200089302000893020008EC
:1000A00093020008930200089302000893020008DC
:1000B00093020008993F0008A53F0008930200083A
:1000C00093020008930200089302000893020008BC
:1000D00093020008930200089302000893020008AC
:1000E000930200089302000893020008930200089C
:1000F0009302000893020008930200080000000029
:1001000000000000930200080000000093020008B5
:100110009302000800000000930200089302000808
:10012000930200089302000893020008930200085B
:100130009302000800000000000000009302000885
:100140009302000893020008000000000000000075
:10015000000000000000000000000000000000009F
:1001600000000000000000000000000093020008F2
:1001700093020008000000000000000000000000E2
:1001800000000000930200080000000000000000D2
:10019000000000000000000000000000000000005F
:1001A0000000000000000000930200089302000815
:1001B0009302000893020008930200080000000068
:1001C0000000000093020008000000000000000092
:1001D000930200089302000800F002F800F03CF8D7
:1001E0000AA090E8000C82448344AAF10107DA4592
:1001F00001D100F031F8AFF2090EBAE80F0013F0A8
:10020000010F18BFFB1A43F001031847E84E000026
:10021000084F0000103A24BF78C878C1FAD85207B6
:1002200024BF30C830C144BF04680C607047000070
:100230000023002400250026103A28BF78C1FBD8EF
:10024000520728BF30C148BF0B6070471FB504F08C
:100250001AFB1FBD10B510BD00F0D4F81146FFF712
:10026000F5FF04F097FA00F0F2F803B4FFF7F2FF9D
:1002700003BC00F0F5F80000094880470948004732
:10028000FEE7FEE7FEE7FEE7FEE7FEE7FEE7FEE746
:10029000FEE7FEE704480549054A064B70470000A3
:1002A000853F0008D901000808040020080A002042
:1002B000080600200806002053EA020C00F06980BE
:1002C0002DE9F04B4FF00006002B1FBFB3FA83F56A
:1002D00003FA05F424FA05F65E4012BF1643B2FA9B
:1002E00082F502FA05F4C5F120051EBF22FA05FCCD
:1002F00044EA0C04203556EA044C4FEA144418BF73
:10030000641C4FF000084FF00009904271EB030CA1
:1003100039D3002919BFB1FA81F701FA07F6B0FA0B
:1003200080F700FA07F6C7F120071EBF20FA07FC86
:1003300046EA0C062037B6FBF4FCA7EB0507103F96
:1003400007F01F0BCBF120062CFA06F60CFA0BFB7C
:1003500044BFB3460026202FA4BF5E464FF0000BDB
:100360005BEA060C08BF4FF0010B19EB0B0948EBD9
:100370000608ABFB027C06FB02CC0BFB03CCC01BCC
:1003800071EB0C01C1E70B46024641464846BDE809
:10039000F08B13B5084318BF4FF0FF300146AFF3A1
:1003A0000080BDE81C4070474FF0000200B51346C6
:1003B00094469646203922BFA0E80C50A0E80C5085
:1003C000B1F12001BFF4F7AF090728BFA0E80C5036
:1003D00048BF0CC05DF804EB890028BF40F8042B2F
:1003E00008BF704748BF20F8022B11F0804F18BF9C
:1003F00000F8012B704770477047704700487047FE
:10040000180000207546FFF7F9FFAE460500694663
:10041000534620F00700854618B020B5FFF73AFF95
:10042000BDE820404FF000064FF000074FF00008F5
:100430004FF0000BAC46ACE8C009ACE8C009ACE832
:10044000C009ACE8C00921F007018D46704710B51E
:100450000446AFF300802046BDE81040FFF705BF1B
:1004600001491820ABBEFEE72600020070470000DD
:100470000146806AC36DC26D13F0500F08D0D206DA
:1004800048BF00F077BB406D426B0846104700BF85
:1004900042F40071C16501680B68CA681B0711D47A
:1004A00091070CD4C16D21F48071C165C16DC9047F
:1004B00048BF00F05BBBC16D41F00101C16500F0B8
:1004C00055BB00BF12F4406FF9D1C9688904F6D456
:1004D000C16D21F48071C165C16DC904EFD4C16DD6
:1004E00041F00101C16500F041BB0000806AC16DAF
:1004F00041F04001C165016E41F00401016600F068
:1005000039BB0000806A00F033BB0000B0B5016861
:10051000044688688A6880074FF0000033D412F0E0
:10052000010208BFB0BD886800F00D0001281FD18E
:1005300088684FF6C072C7F6FF72104002308860BC
:100540000320086001F008F921688968C90704BF21
:100550000020B0BD054602E08068C00712D001F05F
:10056000FBF8411B20680329F6D38168C907F3D043
:10057000E06D40F01000E065206E40F00100206664
:100580000120B0BD0020B0BD70B504460068816890
:10059000C90739D14FF6C076C7F6FF76816806F1F4
:1005A0007F0211420AD0E06D40F01000E065206E3D
:1005B00040F001002066012070BD00BF816831401D
:1005C00041F00101816001F0C7F821680A68D20793
:1005D0001CBF002070BD054603E000BF0868C007CF
:1005E00012D18868C00704D18868304040F001000B
:1005F000886001F0B1F8401B21680328EED3086839
:10060000C007EBD1CFE700BF002070BDFEE70000C0
:1006100040F22C20C2F2000000F034BE704700000F
:10062000EFF3108072B600BFFEE70000B0B582B0F5
:1006300004460020019094F85800012802D10220BD
:1006400002B0B0BD012084F8580020460D46FFF7E7
:100650005DFFE16D10B141F010014BE041F202127B
:1006600091430231E16521684FF6C073D1F808C0AB
:10067000C3F6FF7303EA0C0305F080454DF60162F3
:100680002B44C0F2040203F100438B608B68B3F18A
:10069000FF3F2BDC019B01330193019B93421DD84B
:1006A0008B68B3F1FF3F21DC019B01330193019B78
:1006B000934213D88B68B3F1FF3F17DC019B0133E2
:1006C0000193019B934209D88B68B3F1FF3F0DDC86
:1006D000019B01330193019B9342D7D9E06D40F018
:1006E000100020F00201012004E000BFE16D0122B2
:1006F00062F30101E165002184F8581002B0B0BD39
:1007000070B582B090F85820012A03D10221084622
:1007100002B070BD0022019200920268B2F1A04FB7
:1007200030D140F208324FF6006C4FF60055C5F25A
:100730000002CFF6FF7CCFF6FF7552F80C405359FC
:1007400023435B071ED4D1F800E01368BEF1000F0D
:1007500023F4604422D04B6890F83860234343EA86
:1007600046331360535952F80C603343DB0723D1EF
:100770001368896840F61F76B34341EA0E011943B6
:1007800017E000BFC16D41F02001C16501210022C9
:1007900080F85820084602B070BD00BF146051595F
:1007A00052F80C301943C90708D1116840F61F737D
:1007B000994311600021EAE70021E8E70021E6E71C
:1007C000F0B581B00022009290F85820012A03D1A0
:1007D0000221084601B0F0BD0123076880F85830B7
:1007E000BB685B0734D4D1E900531F26C3F301244F
:1007F00007EB8404226B03F01F039E40B243C5F352
:10080000846606FA03F31A432263BA68BB68DB08FE
:1008100043EA9202D20740F0BC800A6807F1140351
:100820000426C2F34064D1F808E006EAD25C53F82B
:100830002450C2F304540722A240BEF1004F25EA1F
:1008400002050BD143F80C501A6842F000430DE04A
:10085000C16D41F02001C165012180E10EFA04F271
:100860002A4343F80C201A6822F000437B61D1E947
:100870000434FD68042B5FD13A6E3A6E0B68C2F304
:10088000846293FAA3F6C3F3846C6FF3DF43B6FA82
:1008900086F5002B2C464FF6FF7E08BF6446A24229
:1008A000C0F2070E0CD13A6E22F000423A660A6896
:1008B00002EA0E03C2F3846C92FAA2F2B2FA82F553
:1008C0007A6E7A6E002BC2F384622C4608BF6446AF
:1008D000A2420CD17A6E22F000427A660A6802EADD
:1008E0000E03C2F3846C92FAA2F2B2FA82F5BA6EE7
:1008F000BA6E002BC2F384622C4608BF6446A24243
:100900000CD1BA6E22F00042BA660A6802EA0E03FF
:10091000C2F3846C92FAA2F2B2FA82F5FA6EFA6E1F
:10092000002BC2F3846208BF6546AA4231D1FA6E39
:1009300022F00042FA662CE0062202EA95020E68D6
:1009400007F1600504FA02FC55F823404FF200025B
:10095000C0F2FF3206F0F846224046EA0C06324367
:1009600042F0004245F823200A698B6955F822605D
:1009700026F08076334345F822300A690B7F55F81C
:100980002260012B26F0007608BF06F1007645F8BC
:100990002260BA68D2074CD10C68CA680026234688
:1009A000C4F27F06B2426FF3DF4319D1D7F8B0200B
:1009B00042EA0302C7F8B020C3B194FAA4F2B2FA33
:1009C00082F2013202F01E03092B02F01F0316D837
:1009D00001229A4003EB430342EA03531BE000BFAA
:1009E000D7F8B0209A43C7F8B02022E0012202EBEA
:1009F000946202F01E030A2B02F01F03E8D30122C7
:100A000000269A4003EB4303CFF6206606EB035320
:100A10001A4342F00073C3F3406607EB86068A6808
:100A20007569C3F3045307249C40A5439A402A43A5
:100A300072610C680021C8F208010C4254D040F2E7
:100A4000083CC5F2000CDCF800300021CCF221316A
:100A50008C4203F0E07E04D01021C9F2C0018C4228
:100A600044D1B7F1A04F4FF0000108BF13F40002CA
:100A700075D1DCF8001042F6635221F0E07141EAD2
:100A80000E0141F40001CCF8001040F21401C2F252
:100A900000010968C0F23E528909A1FB02129109C6
:100AA00001EB41010C2202EB810100910099002928
:100AB0004CD0009901390091009900294AD0009941
:100AC000013900910099002946D00099013900911F
:100AD0000099002942D0009901390091009900291C
:100AE0004FF00001E5D13AE0002138E00021CCF2DE
:100AF00052718C4208BF13F0807117D0ACF50271AF
:100B00008F424FF000012AD00022CCF6843294426A
:100B100008BF13F4800222D1DCF8001021F0E0714C
:100B200041EA0E0141F480010CE000BFACF5027116
:100B30008F420DD0DCF8001021F0E07141EA0E0187
:100B400041F08071CCF80010002108E0002106E09F
:100B5000002104E0002102E0002100E00021002249
:100B600080F85820084601B0F0BD00007047000032
:100B70007047000070470000B0B582B00446002006
:100B800001904CB1E06D58B121688868800012D4A2
:100B90008868C00019D54CE0012002B0B0BD00BF8C
:100BA000204600F00DF90020206684F858002168E6
:100BB00088688000ECD588684FF6C072C5F6FF7271
:100BC000104088608868C00033D44FF6C0728868CF
:100BD000C5F6FF7202F18052104000F1805088602B
:100BE00040F21400C2F20000006842F6635280092D
:100BF000C0F23E52A0FB02029009022202EB40002A
:100C000001900198A8B100BF0198013801900198A6
:100C100078B1019801380190019850B101980138DC
:100C20000190019828B1019801380190019800289D
:100C3000EAD18868C00009D4E06D40F01000E0659A
:100C4000206E40F001002066012000E000208A684C
:100C5000E36DC2F3800203F01003D218E26D05D0F9
:100C600042F010010120E16502B0B0BD22F48172B2
:100C70000232E2658A68D2071AD140F2083C4FF688
:100C800000534FF60062C5F2000CCFF6FF73CFF6AB
:100C9000FF725CF803305CF802201A43D20707D1D8
:100CA0006268DCF8003023F47C131A43CCF800208F
:100CB000627FE36B43EA4232D4E902C31A4394F8F9
:100CC000243042EA0C02012B42EA034207D1D4F855
:100CD00028C00023CFF6FE7303EB4C431A43E36AAC
:100CE00033B103F47873D4F830C01A4342EA0C02EB
:100CF000D1F80CC044F20703CFF6F07303EA0C03FB
:100D00001A43CA600A69636B22F040621A430A619F
:100D10008A688B68DB0843EA9202D2073FD194F8D5
:100D20003820237F520042EA833CCB6844F202021F
:100D300023EA020242EA0C02CA6022690B695AB134
:100D400043F480330B61D1F8C0C043F6FF732CEA43
:100D500003031A4308E000BF23F480320A61D1F88C
:100D6000C02043F6FF739A43C1F8C02094F8403086
:100D70000A69012B10D140F2FD7322EA030CD4E979
:100D80001132D4E913E543EA0C031A4342EA0E0296
:100D90002A4342F0010201E022F001020A61626985
:100DA0000B6B012A23F00F0202D1236A013B1A4385
:100DB0000A63E16D012262F30101E16502B0B0BD99
:100DC000F0B597B0044600201690CDE91400CDE9A7
:100DD000120001A804304021FFF7E6FA2068B0F1C4
:100DE000A04F01D017B0F0BD4FF4004001904FF07C
:100DF0000050109001A800F009FE002818BFFFF76E
:100E00000FFC41F24C00C4F20200016812AD41F443
:100E1000005101600168032701F40051009100991D
:100E20000168002641F001010160016801F0010143
:100E300000910099016841F00201016000682946B3
:100E400000F00200009000984FF09040CDE912773A
:100E5000149600F08DFB4FF48040CDE9120740F26C
:100E60000040C4F600002946149600F081FB40F2D1
:100E70002C250820C2F20005C4F2020005214FF41F
:100E8000807385E8430005F1140080224FF48067E9
:100E90004FF0200C80E888102846C5E903622E62D6
:100EA00000F04AFA002818BFFFF7BAFB6565AC628C
:100EB00017B0F0BD2DE9F04140F200170446C5F22D
:100EC0000007D7F80802236890469B685A0704D4A5
:100ED0000E4694F85810012902D10220BDE8F08195
:100EE00000F01F050120092D84F858005AD8A840A9
:100EF00040F22121084255D02046FFF745FB28B19A
:100F0000002184F85810BDE8F08100BF2168E06D31
:100F100040F60172904300F58072B942084608BF5E
:100F20004FF0A040002DE26518BF884203D1E06D6C
:100F300020F48010E065E06D40F27143C0044FF092
:100F4000000044BF206E20F006002066606D40F275
:100F50000557C0F60003C0F6000740F2ED45002239
:100F6000C0F60005C0E90B371C2345630B6084F80D
:100F700058204A68434642F010024A60CA6842F06C
:100F80000102CA604031324600F06CFA21684FF627
:100F9000C0738A68C7F6FF731A4004328A60BDE8DE
:100FA000F08100BF002084F858000120BDE8F081E6
:100FB0002DE9F04381B00446407901284FF002004A
:100FC00000F0E7808846012161712071D8F808009F
:100FD0001646042845D100F0BFFB0746CEB100BF3E
:100FE0002068406BB0F1FF3F20DC00F0B5FBC01B78
:100FF0000228F5D3206940F0080020610320207109
:1010000001B0BDE8F08300BF00F0A6FBC01B0228C2
:10101000F0D22068406B0004F6D4012000F094FA6E
:10102000D8F824102068016407E000BF012000F018
:101030008BFAD8F8241020684164816C06F0100205
:1010400040F2FF3393409943D8E90A37934019435C
:101050008164C16CFF239340994307FA02F2114364
:10106000C164D8F81C10206801290DD1816B06F0ED
:1010700010061F22D8F82030B240914303FA06F23E
:101080001143816302E000BF06F01006D0F83CC0B7
:10109000D8F818200721012A01FA06FE04D0022AF6
:1010A00006D14FF0010909E04FF0000906E000BF4A
:1010B000D8F81420B2FA82F24FEA5219D8F8083060
:1010C000D8F8147098F804004FF4007143EA09034B
:1010D0004FF4807501FA06F298F805101F430128B5
:1010E0006FF4404005FA06F508BF47F4807780EAC0
:1010F0000E00012908BF47F40077A843D8F8001074
:101100009043022900EA0C050AD100F03FFF46F6A1
:101110000101C0F68911884204D345F4004509E075
:101120000D4307E04BF20041C0F2C441884288BF42
:1011300045F4804507FA06F021682843C8634FF458
:1011400080400A68B04022EA00000860086840F663
:10115000FE72B2409043D8E9032302FA06F73843FF
:101160000860C0200F68B04027EA00000860C2F3A2
:10117000830003F03C0240EA82100A6E40F60F73CF
:10118000B3409A43B040104308660120207100200C
:10119000607101B0BDE8F083002804BF01207047F2
:1011A00010B50446007920B900206071204600F097
:1011B00007F802202071002001212061217110BD5B
:1011C00080B586B0006840F60002C5F2000200213A
:1011D00090420591049101D006B080BD41F24C00CF
:1011E000C4F20200026842F480320260026802F433
:1011F00080320092009A026842F0010202600068A8
:1012000000F0010000900098102001900320CDE92B
:10121000020101A94FF0904000F0AAF906B080BD8C
:1012200070B50446407901284FF0020008BF70BD38
:101230000D46012161712071206805F010060268D9
:10124000B14011430160012000F07EF9206801687F
:1012500055B1022201F47811B24091420CD141689B
:1012600041F0020107E000BF01F03E01022903D175
:10127000416841F00101416001202071002060714E
:1012800070BD0000B0B50268D0E910C4DCF80050B1
:10129000136804F01F0E590714D5042101FA0EF447
:1012A00014EA05010ED01168890603D4116821F0F3
:1012B00004011160CCF80440016B00293AD0BDE86C
:1012C000B0400847990719D5022101FA0EF414EA33
:1012D000050113D01168890606D4116821F00A01AE
:1012E0001160012180F82510CCF80440C16A002269
:1012F00080F82420F1B1BDE8B0400847190719D59E
:10130000082101FA0EF1294008BFB0BD116821F093
:101310000E011160012101FA0EF2CCF80420C16324
:1013200080F82510416B002280F8242011B1BDE81F
:10133000B0400847B0BD000000284FF0010100F0A8
:101340008E802DE9F04740F2000CC4F2020C0368D5
:101350004FF6F8320CF5816ECBF6FD72734538BF4F
:1013600002F580624CF6CD441A44CCF6CC44A2FB84
:1013700004286FF0070252FA83F2A2FB04290CF54D
:1013800080656FF00304D0E90262D0F810A03CBF82
:101390000025C4F2020504EA9804C0E910540225AD
:1013A00080F825501D6847F6F07725EA0707374390
:1013B0003A43476942EA0A0285693A43C7692A43C0
:1013C000056A3A432A431A600CF50262734538BF36
:1013D0000CF50062A3180CF50862C264C9F304128C
:1013E00040F6840C01FA02F2B6F5804FC4F2020C0A
:1013F0008364026506D1002141601960CCF80020A9
:101400001EE000BF41685FFA81FE013903294FF0F9
:101410000001C3F800E0CCF8002011D8AEF10102C1
:101420000CEB820747F87C1F02F01F01012202FA31
:1014300001F30CF1BC023946CCF8C03002E000BF29
:101440000022002300F1540C8CE80E000021012240
:10145000C16380F8252080F82410BDE8F0470846D5
:10146000704700002DE9F04190F824C0BCF1010F55
:1014700043D04FF0010C80F824C090F825C0BCF197
:10148000010F37D14FF0020C80F825C04FF0000C4F
:10149000C0F83CC0D0F800C000F14C0E9EE83040CF
:1014A000DCF80060BEF1000F26F00106CCF8006009
:1014B00065601CBFD0E916456560D0E9107601254E
:1014C00006F01F068468B540D0F830807D60CCF807
:1014D00004300B46102C04BF13460A46CCF80830E3
:1014E000CCF80C20DCF80010B8F1000F08D041F067
:1014F0000E010DE0002180F824100220BDE8F081EB
:1015000021F00401CCF80010DCF8001041F00A01D1
:10151000CCF80010806C0168C90303D5016841F460
:1015200080710160BEF1000F05D0DEF8000040F4CC
:101530008070CEF80000DCF8000040F00100CCF82C
:1015400000000020BDE8F081B0B5044600F004F9C9
:10155000054640F20000C2F200004068611C18BF5E
:10156000044400BF00F0F8F8401BA042FAD3B0BD1D
:101570002DE9F04F84B00C680190002C00F0E2805F
:10158000019841F2004600F13842C4F600068E464A
:101590004FEAB2270621B04208BF0521052F4FF0C0
:1015A00000054FF001074FF000064FF0000838BF6C
:1015B0004FEAB2210091CDF808E00DE0DEF80040DE
:1015C00008F1010834FA07F106F1020607F10107F4
:1015D00005F1040500F0B680A7F1010A012000FA28
:1015E0000AF214EA0209E9D0DEF804C00CF0030B99
:1015F000ABF10104012C17D80198744681680323CC
:10160000E468B3409943B4402143816041684FEAA4
:10161000480E9143CCF3001202FA0AF20446D84372
:10162000114361600CE000BF0321B140019CC8433D
:10163000BBF1030FB64603D1B6464FF0030B23E0D0
:10164000E168029B01409A68BBF1020F02FA0EF2B8
:1016500041EA0201E16017D16FF0030101EA5A018A
:10166000214405F01C040F22D1F820C002FA04FB2B
:101670001A692CEA0B0CA24042EA0C02019C0A6295
:10168000D3F804C00CF0030B21680BFA0EF20140F2
:1016900011432160DDF808E01CF4403F8ED041F298
:1016A0006000C4F20200016840F2004C41F0010108
:1016B00001600168C4F2010C01F00101039103997A
:1016C0002AF003014FF6084A6144CFF6FF7A05F08D
:1016D0000C030F2051F80A2000FA03F40098A243EB
:1016E00000FA03F31A4341F80A20DCF80810DEF888
:1016F000042041EA090340F20C40D40258BF21EA19
:101700000903CCF80830C4F201000168940241EAF0
:10171000090358BF21EA09030360DCF804109403AD
:1017200041EA090358BF21EA0903CCF80430DCF888
:101730000010D20341EA090358BF21EA0903CCF89B
:1017400000303BE704B0BDE8F08F00001823002A0A
:1017500008BF2823C150704740F20040C2F2000089
:101760000068704740F2000040F20041C2F2000001
:10177000C2F2000140680A68104408607047000027
:1017800080B5032000F08AF8002000F009F8002856
:101790001CBF012080BD00F02BF8002080BD0000A0
:1017A00070B540F20006C2F200067168E1B104466D
:1017B00040F21400C2F200004FF47A720068B2FBEB
:1017C000F1F1B0FBF1F000F0A9FE0F2C4FF0010594
:1017D00008D838B94FF0FF3021460022002500F02C
:1017E00031F83460284670BD0125284670BD0000E0
:1017F00082B041F25800C4F20200816841F0010158
:101800008160816801F0010101910199016841F055
:1018100080510160006800F080500090009802B094
:1018200000F0EAB8002848BF704700F01F0101220D
:1018300002FA01F14EF200124009CEF2000242F823
:101840002010704710B54EF60C5CCEF2000CDCF8A0
:101850000030C3F3022E8EF00704042C28BF0424AA
:10186000BEF103034FF0FF3E0EFA04F438BF00232D
:10187000A14399400EFA03F39A4300F00F03043B8F
:101880001143634409010C3300F16042B0F1FF3FA2
:10189000C8BF02F56443197010BD00004EF60C512C
:1018A000CEF200010A684FF6FF031A4060F30A22E5
:1018B00042F0806040F0FD7008607047B0F5007F36
:1018C00048D0002840F08A8047F21400C4F200009B
:1018D00050F8141CC26E01F4C06122F48072B1F59C
:1018E000806FC26633D150F8141C012262F34A2182
:1018F00040F8141C40F21401C2F2000109683222BF
:1019000051434DF68362C4F21B32A1FB0212910CCB
:1019100002684B1C18BF12F4806213D002680029C1
:1019200018BF12F480620DD00268012918BF12F4AA
:10193000806207D00268022904D012F48062A1F10B
:101940000401E5D10068400544BF03207047002032
:10195000704700BF47F21400C4F2000050F8141C96
:10196000C26E01F4C06142F48072B1F5806FC2664C
:10197000EDD150F8141C012262F34A2140F8141CE6
:1019800040F21401C2F200010968322251434DF6BF
:101990008362C4F21B32A1FB0212910C02684B1C41
:1019A00018BF12F4806213D00268002918BF12F425
:1019B00080620DD00268012918BF12F4806207D03E
:1019C0000268022904D012F48062A1F10401E5D179
:1019D0000068400544BF03207047B8E747F2140091
:1019E000C4F2000050F8141C022262F34A2140F8AD
:1019F000141C00207047000047F20800C4F20000E9
:101A0000016841F480410160704700002DE9F04118
:101A100082B00446807841F288060007C4F20206CC
:101A200002D400202FE000BF56F8300C10F0805890
:101A30000BD156F8300C40F0805046F8300C56F878
:101A4000300C00F080500190019847F20007C4F27A
:101A50000007386840F480703860FFF77DFE054667
:101A60003868C00500F1D680FFF776FE401B0228DB
:101A7000F6D90320B8F1000F05D156F8301C21F03B
:101A8000805146F8301C2168CA0713D18A0719D43F
:101A90004A071FD40A0725D48A062BD44A0631D414
:101AA0000A0637D4CA053DD48A0543D44A0549D429
:101AB00057E000BF3268636822F003021A433260C5
:101AC0008A07E5D53268A36822F00C021A43326017
:101AD0004A07DFD53268E36822F030021A433260E9
:101AE0000A07D9D53268236922F0C0021A4332604E
:101AF0008A06D3D53268636922F440621A433260A1
:101B00004A06CDD53268A36922F440521A433260A6
:101B10000A06C7D53268E36922F440421A433260AC
:101B2000CA05C1D53268236A22F440321A433260B2
:101B30008A05BBD53268636A22F440221A433260B8
:101B40004A050ED53268A36A22F440121A43B3F54F
:101B5000801F326005D156F87C2C42F4801246F882
:101B60007C2C0A050ED53268E36A22F440021A433F
:101B7000B3F5800F326005D156F87C2C42F4801208
:101B800046F87C2CCA040ED53268236B22F04072D2
:101B90001A43B3F1807F326005D156F87C2C42F4B1
:101BA000801246F87C2C8A040ED53268636B22F0D2
:101BB00040621A43B3F1006F326005D156F87C2CB5
:101BC00042F4801246F87C2C4A040ED53268A36B8E
:101BD00022F040621A43B3F1006F326005D156F82B
:101BE0007C2C42F4801246F87C2C09040ED5316816
:101BF000E26B21F040511143B2F1805F316005D1B9
:101C000056F87C1C41F4803146F87C1C02B0BDE8DB
:101C1000F08100BFB06810F4407010D0216C884291
:101C20000BD0B068B16820F4407041F48031B160ED
:101C3000B16821F48031B160B060C0070CD1B068E8
:101C4000216C20F440700843B0600020B8F1000F10
:101C50007FF419AF11E700BFFFF77EFD054641F2A3
:101C6000883700BFB0688007E9D4FFF775FD401BD7
:101C7000B842F7D9FDE600002DE9F04700286DD005
:101C800042F2000AC4F2020A0446DAF800000D46E5
:101C900000F00F0088420CD2DAF8000020F00F00AC
:101CA0002843CAF80000DAF8000000F00F00A8424C
:101CB00054D1216841F20808C807C4F2020803D1D0
:101CC000880740F1D880BDE0606802283AD0032838
:101CD00040D158F8082C920140D5D8F80420D8F803
:101CE000043042F2004702F00302C3F30313C0F2D0
:101CF000F4070133032A04BF43F20067C0F26E17F2
:101D0000D8F80420B7FBF3F3D8F80470C2F3062226
:101D10005A43C7F34163022707EB4303B2FBF3F2D5
:101D20004BF20043C0F2C4439A4261D9D8F8002074
:101D300012F0F00F51D089075AD5A168002957D168
:101D40004BE000BF58F8081C89035CBF0120BDE8C8
:101D5000F08707E058F8081C490503D40120BDE8C6
:101D6000F08700BFD8F8001001F00C0104293FD023
:101D7000D8F8001001F00C01082939D0D8F800106B
:101D800001F00C010C2933D1D8F80410D8F8042044
:101D900042F2004301F00301C2F30312C0F2F40364
:101DA0000132032904BF43F20063C0F26E13D8F876
:101DB0000410B3FBF2F2D8F80430C1F3062151430A
:101DC000C3F34162022303EB4202B1FBF2F14BF297
:101DD0000042C0F2C44291420AD9D8F80010082249
:101DE00062F307114FF00109C8F8001002E000BFCC
:101DF0004FF00009D8F8001021F003010843C8F89B
:101E00000000FFF7A9FC064641F28837D8F8000029
:101E1000616800F00C00B0EB810F07D0FFF79CFC6D
:101E2000801BB842F2D90320BDE8F08721688807FB
:101E300008D4B9F1000F1ED0D8F8000020F0F0004F
:101E400017E000BF480705D5D8F8000040F4E0606F
:101E5000C8F80000080706D5D8F80000072262F38A
:101E60000D20C8F80000D8F80000A26820F0F000AB
:101E70001043C8F80000DAF8000000F00F00A84294
:101E80001BD9DAF8000020F00F002843CAF8000040
:101E9000FFF762FC064641F2883700BFDAF800001F
:101EA00000F00F00A84207D0FFF756FC801BB84295
:101EB000F4D90320BDE8F0872168480707D5D8F892
:101EC0000000E26820F4E0601043C8F80000080752
:101ED00008D5D8F80000216920F4605040EAC1001C
:101EE000C8F80000D8F8000042F20041C0F2F40146
:101EF00000F00C00042808462DD0D8F8000000F0AF
:101F00000C00082843F20060C0F26E1023D0D8F80D
:101F1000002002F00C020C2A1CD1D8F80420D8F8BA
:101F2000043002F00302C3F303130133032A08BF92
:101F30000146D8F80400B1FBF3F1D8F80420C0F34F
:101F400006204843C2F34161022202EB4101B0FB8B
:101F5000F1F000E00020D8F8001044F6A002C1F330
:101F60000311C0F60002515C40F2140201F01F019F
:101F700020FA01F140F20000C2F200000068C2F253
:101F800000021160BDE8F047FFF70ABC40F2140000
:101F9000C2F200000068704740F2140041F20801EC
:101FA000C2F20000C4F202010068096844F6B002FF
:101FB000C1F30221C0F60002515C01F01F01C840CC
:101FC0007047000040F2140041F20801C2F2000024
:101FD000C4F202010068096844F6B002C1F3C221EC
:101FE000C0F60002515C01F01F01C84070470000BC
:101FF00041F20C01C4F2020151F8040C42F2004219
:10200000C0F2F40200F00C000428104608BF70472C
:1020100051F8040C00F00C00082843F20060C0F2F4
:102020006E1021D051F8043C03F00C030C2B1CBFA4
:1020300000207047D1F800C00B680CF0030CC3F30C
:1020400003130133BCF1030F08BF02460868B2FB5B
:10205000F3F20968C0F306205043C1F34161022244
:1020600002EB4101B0FBF1F0704700002DE9F041B7
:1020700082B0002800F006810446007841F2000694
:10208000C007C4F2020655D12078800774D42078A6
:10209000000700F197802078400700F1B780207892
:1020A000800600F10781E069002840D0B16801F0A6
:1020B0000C010C2940F05681012800F0E380F06803
:1020C000216A00F003028A4240F0DC80626A6FF00D
:1020D0000F0300F0F00103EB0212914240F0D280B6
:1020E000A16A00F4FE42B2EB012F40F0CB80E16A1E
:1020F00000F07842B2EBC16F40F0C480226B002345
:10210000CFF6E07303EB025200F4C0016FF3140248
:10211000914240F0B780616B4FF07E4202EB01616B
:1021200000F0C06001F07E41884240F0AB800020AA
:10213000F1E100BFB06800F00C01F06808295BD045
:10214000032281F00C0122EA00000844B0FA80F07A
:10215000400951D16068B0F5803F07D0B0F5A02F9D
:1021600040F0D680306840F480203060306840F421
:1021700080303060D7E000BFB068F16800F00C003C
:10218000042869D001F0030180F00C0081F0020105
:102190000844B0FA80F040095ED1E1683068002957
:1021A00000F0CE8040F480703060FFF7D5FA05462D
:1021B0003068400500F1EC80FFF7CEFA401B0228A2
:1021C000F6D920E16169D6F89400002900F08C80EE
:1021D00040F00100C6F89400FFF7BEFA054600BFC4
:1021E000D6F8940080073FF556AFFFF7B5FA401BCD
:1021F0000228F5D907E100BF306880037FF544AFBE
:10220000606800287FF440AF3CE000BFB06D10F084
:10221000805808D1B06D40F08050B065B06D00F0CE
:1022200080500190019847F20007C4F20007386817
:10223000C0052BD4386840F480703860FFF78CFA02
:10224000054600BF3868C00520D4FFF785FA401B5B
:102250000228F7D9D7E000BF3068400501D5E06813
:1022600080B17068216920F0FE4040EA0160706032
:1022700040F20000C2F200000068FFF791FA002867
:102280003FF405AF012002B0BDE8F081A06801284D
:1022900008D0052840F09A80D6F8900040F004005D
:1022A000C6F89000D6F8900040F00100C6F8900003
:1022B0009AE000BFA169D6F89800002970D040F0DC
:1022C0000100C6F89800FFF747FA0546D6F89800CF
:1022D00080073FF5E8AEFFF73FFA401B02284FF0BA
:1022E0000300F3D917E100BF20F00100C6F8940005
:1022F000FFF732FA054600BFD6F8940080077FF555
:10230000CAAEFFF729FA401B0228F5D97BE000BFCF
:102310003168002821F480313160316821F4802156
:10232000316000F08F80FFF717FA054630688003B0
:102330003FF5AAAEFFF710FA401B6428F6D962E019
:1023400020F480703060FFF707FA054630684005DA
:102350007FF59DAEFFF700FA401B02284FF0030007
:10236000F4D9D8E03168022821F0807131604FD172
:10237000FFF7F2F9054600BF3068800140F18E801A
:10238000FFF7EAF9401B02284FF00300F4D9C2E03E
:102390007068216920F0FE4040EA0160706076E6D6
:1023A00020F00100C6F89800FFF7D6F9054600BFF7
:1023B000D6F8980080077FF576AEFFF7CDF9401B81
:1023C00002284FF00300F3D9A5E000BFD6F8901023
:1023D000002821F00101C6F89010D6F8901021F0E5
:1023E0000401C6F890103DD0FFF7B6F9054641F25A
:1023F000883700BFD6F89000800745D4FFF7ACF9C6
:10240000401BB842F6D9032002B0BDE8F08100BFFE
:10241000F0684FF6FF7120F00300F060F068CFF62F
:10242000EE610840F060FFF797F9044630688001DC
:102430007FF57DAEFFF790F9001B02284FF00300F7
:10244000F4D968E0FFF788F9054600BF30688003DB
:102450007FF51AAEFFF780F9401B64284FF00300A8
:10246000F4D958E0FFF778F9054641F2883700BF04
:10247000D6F89000800707D5FFF76EF9401BB842E9
:102480004FF00300F4D946E0B8F1000F7FF407AE37
:10249000B06D20F08050B06501E600BFF06848F2F2
:1024A0000C01C0F29F1104F1200700EA010C8ECF4D
:1024B0006FF00F00D4E90C5400EB02100022CFF6AD
:1024C000E07241EA0C0102EB055208436FF314027B
:1024D0004FF07E4540EA032005EB0465104305F00C
:1024E0007E4540EAC7602843F060306840F0807065
:1024F0003060F06840F08070F060FFF72DF904461E
:10250000306880013FF513AEFFF726F9001B022863
:102510004FF00300F4D902B0BDE8F081411E002065
:10252000B0EB116F1CBF012070474EF21002CEF2CB
:10253000000251604EF62351CEF20001F0230B70E1
:1025400007219060116070477047000070470000DD
:1025500070470000F0B590F83C20012A04BF02202B
:10256000F0BDD1E90232D1E900CE22F47C5223F44D
:1025700070531A4348F2FF73CFF6F07303EA0E0369
:1025800042EA030E0A692CF477234EEA030C22F484
:1025900076224B6942EA0C021A430B6B22F4742C2C
:1025A00023F470238A6943EA0C0343EA0243026876
:1025B00043F2004EC4F2010E42F6004C7245C4F2E2
:1025C000010C01D0624503D1CC6923F08053234331
:1025D000724501D0624517D101F12006002770CE67
:1025E000CFF6F04723F07C7307EA0656334324F016
:1025F00000742343724543EA050301D0624503D1C9
:10260000C96A23F000530B430021536480F83C1047
:102610000846F0BD7047000070470000704700009A
:1026200070B590F83C20012A4FF0020247D080F8A4
:102630003D20026843F2004C54689368C4F2010CD8
:1026400042F6004E6245C4F2010E01D0724503D13C
:102650004D6824F470042C434FF68F75CFF6FF5568
:102660000E682C4042F6FF35C4F201053443AA42FD
:1026700054600FDCB2F1804F16D040F20046C4F235
:102680000006B24210D040F60006C4F20006B24284
:102690000AD00EE0724507D044F20006C4F20106EB
:1026A000B24201D0624504D1896823F08003194306
:1026B00091600121002280F83D1080F83C201046F6
:1026C00070BD000070470000002804BF0120704763
:1026D00010B5044690F83D0028B9002084F83C006D
:1026E000204600F023F8022084F83D002068211DD8
:1026F00001F05EFC012084F8480084F83E0084F874
:102700003F0084F8400084F8410084F8420084F8D7
:10271000430084F8440084F8450084F8460084F8B7
:10272000470084F83D00002010BD000080B584B053
:10273000006840F20041C4F2000188421AD040F61D
:102740000001C4F2000188422CD042F60041C4F2DC
:10275000010188420CD141F25800C4F202008168A4
:1027600041F400618160806800F400600390039888
:1027700004B080BD41F25800C4F20200016800229A
:1027800041F0020101600068002100F002000290A7
:1027900002981D20FFF756F81D2004B0BDE88040C8
:1027A000FFF740B841F25800C4F20200016800226D
:1027B00041F0040101600068002100F00400019074
:1027C00001981E20FFF73EF81E2004B0BDE88040AF
:1027D000FFF728B890F83D1001291CBF0120704771
:1027E000022180F83D10016842F6FF32C868C4F249
:1027F0000102914240F00100C8600FDCB1F1804F4E
:102800001ED040F20040C4F20000814218D040F6D1
:102810000000C4F20000814212D025E042F60040E0
:10282000C4F2010081420BD044F20000C4F2010066
:10283000814205D043F20040C4F20100814213D12D
:1028400088680722C0F201020240062A4FF0000009
:102850000FD0B2F5803F08BF7047086840F0010014
:1028600008600020704700BF086840F00100086061
:102870000020704780B590F83C20012A4FF00202FA
:1028800000F0A98080F83D20D0F800C08822DCF854
:102890000830CFF6CE721A40CCF808200B686F2BA8
:1028A00010DD1F22C0F21002934237DCB3F5005F47
:1028B00046DA702B00F09280B3F5805F00F08480E0
:1028C000D6E000BF2F2B35DD4F2B3FDC302B6FD0F8
:1028D000402B40F0CD80D1F804E0C968DCF820300E
:1028E000DCF8202022F00102CCF82020DCF81820AF
:1028F00022F0F00242EA011123F00A0242EA0E023B
:10290000CCF81810CCF82020DCF808104FF68872AC
:10291000CFF6CF721140473154E000BF3F21C0F2E3
:1029200010018B423ADC2021C0F210018B423FD0D3
:10293000302139E0E3B3102B3AD0202B38D097E088
:1029400060D0B3F1101F33D092E000BF502B6DD098
:10295000602B40F08D80D1F804E0C968DCF82030AD
:1029600023F01003CCF82030DCF81830DCF82020FD
:1029700023F4704322F0A00243EA013142EA0E122E
:10298000CCF81810CCF82020DCF808104FF688722C
:10299000CFF6CF721140673114E000BF4021C0F282
:1029A00010018B4204D07021C0F210018B425FD124
:1029B000DCF808104FF68872CFF6CF721140194339
:1029C00041F00701CCF808100022012180F83D10E9
:1029D000002180F83C10104680BD00BFD1E901E322
:1029E000C968DCF8082043EA0E0322F47F4243EA78
:1029F00001211143CCF80810DCF8081041F07701F0
:102A0000E0E700BFD1E901E3C968DCF8082043EA48
:102A10000E0322F47F4243EA01211143CCF808104F
:102A2000DCF8081041F48041CCE700BFD1F804E0A5
:102A3000C968DCF82030DCF8202022F00102CCF854
:102A40002020DCF8182022F0F00242EA011123F0E5
:102A50000A0242EA0E02CCF81810CCF82020DCF86A
:102A600008104FF68872CFF6CF7211405731A9E7A0
:102A70000122AAE77047000010B501680446086902
:102A8000800744BFC8685FEA807061D40869400766
:102A900044BFC8685FEA407066D40869000744BF55
:102AA000C8685FEA00706DD40869C00644BFC86892
:102AB0005FEAC06072D40869C0071CBFC8685FEADB
:102AC000C07079D10869000644BFC8685FEA006039
:102AD0007AD40869C00544BFC8685FEA006000F1A5
:102AE0007B800869400644BFC8685FEA406000F127
:102AF0007B800869800644BFC8685FEA806000F197
:102B00007B800869C00244BFC8685FEAC02000F14A
:102B10007B800869800244BFC8685FEA802000F1BA
:102B20007B800869400244BFC8685FEA402000F12A
:102B30007B800869000246BFC8685FEA002010BDBC
:102B40006FF4000220460A61BDE81040FFF7BABDED
:102B50006FF00200086101202077886980076BD040
:102B60002046FFF787FF6DE06FF004000861022048
:102B70002077886910F4407F68D02046FFF77AFFFD
:102B80006AE000BF6FF00800086104202077C86980
:102B9000800765D02046FFF76DFF67E06FF01000FB
:102BA000086108202077C86910F4407F62D0204671
:102BB000FFF760FF64E000BF6FF00100086120468E
:102BC00000F09AFB21687DE76FF0800008612046E5
:102BD000FFF7BCFC21687CE76FF480700861204639
:102BE000FFF7B2FC21687CE76FF0400008612046E7
:102BF00000F06AFD21687CE76FF020000861204644
:102C0000FFF7A6FC21687CE76FF48010086120467E
:102C1000FFF702FD21687CE76FF400100861204691
:102C2000FFF7F8FC21687CE76FF48000086120461C
:102C3000FFF7F4FC21687CE7204600F07BF8204693
:102C400000F090FA2168002020771FE7204600F06E
:102C500071F8204600F086FA2168002020771CE7F2
:102C6000204600F067F8204600F07CFA216800203A
:102C7000207719E7204600F05DF8204600F072FA50
:102C800021680020207716E72DE9F04186B0006822
:102C900042F60041C4F20101884203D006B0BDE80B
:102CA000F08100BF41F24C00C4F20200016840F222
:102CB000004841F0040101600168C4F6000801F019
:102CC000040101910199016801AD41F00101016028
:102CD0000168022601F001010191019901680027B4
:102CE00041F0020101600068294600F002000190F5
:102CF00001980320019008F580600296CDE90377E2
:102D00000596FEF735FC802001A9C1C106244FF0CD
:102D10009040294604970594FEF72AFC012001A95A
:102D2000C1C140462946CDE90474FEF721FC06B036
:102D3000BDE8F081704700002DE9F04190F83C308B
:102D4000012B04BF0220BDE8F0814FEAB202052A40
:102D500000F28481DFE812F006005000A200F400C7
:102D600046018A0103681A6AA3F1804622F0010233
:102D70001A621D6A1A465C6852F818CF8F68A6F569
:102D80009636D1F800E025F002054FEAB626072E68
:102D900045EA07050AD80127B74017F0E50F1FBF1E
:102DA000CF6825F00C0527F004073D43072E0BD80C
:102DB000012707FA06F616F0E50F1FBF24F440744A
:102DC000D1E9056734433C434FF68C76CFF6FE7667
:102DD0000CEA060747EA0E075C609F614F680969C5
:102DE0005F631D629F6947F008079F619F6927F035
:102DF00004079F6177E100BF036843F200461A6A47
:102E0000C4F2010622F010021A621D6A1A465C68BA
:102E100052F818EFB3428E68D1F800C025F02005B3
:102E200045EA061505D042F60046C4F20106B34253
:102E300007D1CE686FF0400725F0C00507EA0616F7
:102E40003543A3F18046A6F596364FEAB626072EFF
:102E50000DD8012707FA06F616F0E50F1FBF24F478
:102E60004064D1E9056744EA860444EA870448F6E9
:102E7000FF46CFF6FF660EEA060747EA0C275C60BE
:102E80009F614F6809699F631D629F6947F40067EE
:102E90009F619F6927F480679F6123E1036843F284
:102EA00000461A6AC4F2010622F480721A621D6A90
:102EB0001A465C6852F81CCFB3428E68D1F800E025
:102EC00025F4007545EA062505D042F60046C4F211
:102ED0000106B34207D1CE6840F2FF47360225F41F
:102EE0004065BE433543A3F18046A6F596364FEACA
:102EF000B626072E0DD8012707FA06F616F0E50FBD
:102F00001FBF24F44054D1E9056744EA061444EA9B
:102F100007144FF68C76CFF6FE760CEA060747EAE2
:102F20000E075C60DF614F680969DF631D62DF695E
:102F300047F00807DF61DF6927F00407DF61D2E0AF
:102F4000036843F200461A6AC4F2010622F4805272
:102F50001A621D6A1A465C6852F81CCFB3428E682A
:102F6000D1F800E025F4005545EA063505D042F6D3
:102F70000046C4F20106B34207D1CE6844F6FF779B
:102F8000360325F44045BE433543A3F18046A6F5FC
:102F900096364FEAB626072E0DD8012707FA06F611
:102FA00016F0E50F1FBF24F44044D1E9056744EA59
:102FB000861444EA871448F6FF46CFF6FF660CEA0B
:102FC000060747EA0E275C60DF614F6809691F64E6
:102FD0001D62DF6947F40067DF61DF6927F48067FE
:102FE000DF617FE003681A6AA3F1804722F4803230
:102FF0001A621A46A7F59637D3F820805D6852F812
:1030000050EFD1F800C08E684FEAB727072F09D8D4
:103010000124BC4014F0E50F1EBF4C6925F4803537
:1030200045EA042528F4003444EA06444FF68C7639
:10303000CFF6FE7603360EEA060747EA0C075D6018
:103040001F654F6809699F641C621F6D47F0080780
:103050001F651F6D27F004071F6544E00121002252
:1030600080F83C200846BDE8F08100BF03681A6A7A
:10307000A3F1804722F480121A621A46A7F5963708
:10308000D3F820805D6852F850EFD1F800C08E6808
:103090004FEAB727072F09D80124BC4014F0E50FE9
:1030A0001EBF4C6925F4802545EA842528F40014C8
:1030B00044EA065448F6FF46CFF6FF6606F540762A
:1030C0000EEA060747EA0C275D601F654F6809692D
:1030D000DF641C621F6D47F400671F651F6D27F4D6
:1030E00080671F65090213681943116000210022DF
:1030F00080F83C200846BDE8F0810000002804BFAD
:103100000120704710B5044690F83D0028B9002012
:1031100084F83C00204600F023F8022084F83D00AB
:103120002068211D00F044FF012084F8480084F845
:103130003E0084F83F0084F8400084F8410084F8A1
:10314000420084F8430084F8440084F8450084F881
:10315000460084F8470084F83D00002010BD0000C0
:10316000704700007047000061B10A1F4FEAB202C9
:10317000032A11D8DFE802F00214181C00F13F0303
:1031800018E000BF90F83E20012A1CBF01207047C4
:10319000022280F83E202CE000F143030AE000BF49
:1031A00000F1400306E000BF00F1410302E000BF70
:1031B00000F142031B78012B1CBF01207047032A3A
:1031C00008D8DFE802F0030B0F1300BF022280F8DB
:1031D0003F200EE0022280F843200AE0022280F81D
:1031E000402006E0022280F8412002E0022280F81E
:1031F0004220026801F01F010120136A00FA01F168
:103200008B431362136A0B43A2F18041A1F59631FF
:103210004FEAB1210629136244D8884010F0650FA7
:1032200040D0506C42F6FF31C4F2010140F400403E
:103230008A42506410DCB2F1804F1FD040F200404F
:10324000C4F20000824219D040F60000C4F200002F
:10325000824213D04AE000BF42F60040C4F20100AF
:1032600082420BD044F20000C4F20100824205D039
:1032700043F20040C4F20100824237D19068072136
:10328000C0F20101014006294FF0000008D0B1F55D
:10329000803F08BF7047106840F0010010600020B8
:1032A000704700BF42F6FF30C4F201008242C2DD27
:1032B00043F6FF70C4F20100824207DC42F6004090
:1032C000C4F201008242D3D1D8E700BF44F200002B
:1032D000C4F201008242D1D044F60000C4F20100E1
:1032E000824202BF506C40F400405064106840F0CD
:1032F000010010600020704710B52DED028B40F2E8
:103300006831C2F20001884202D0BDEC028B10BDD0
:1033100040F27804C2F20004A0689FEDDF1A013089
:10332000A060B4F860009FEDDD2A00EE100AB8EE50
:10333000400A20EE010A9FEDDA3A20EE020A9FEDE4
:10334000D94AB4F8620030EE030A20EE040A04EE13
:10335000100AB8EE444A24EE014A24EE024A34EE42
:10336000033A9FEDD14AB4F8640023EE043A84EDA9
:103370000D3A03EE100AB8EE433A23EE011A9FED20
:10338000CB8A21EE021AB3EE0A2A21EE021AF0EEDF
:10339000480A84ED0C0A84ED031A00F02DFD84ED3B
:1033A0000E0A01F0AFF994ED0E1A84ED0F0AB0EE9B
:1033B000410A01F05BF940F2080C94ED042A94ED07
:1033C0000C3AC2F2000C9CED015A94ED114A33EE16
:1033D000423A9CED026A23EE053A33EE443A9FED01
:1033E000B47A23EE063A23EE073A84ED123A23EE3E
:1033F000083A32EE032A26EE023A23EE073A94ED1B
:103400000F1A23EE083A40F2E00234EE033AC2F219
:10341000000284ED042A84ED113A84ED0C2A84ED37
:10342000133A82ED072A82ED083A20EE024A63EE53
:10343000010A20EE033A22EE012A33EE422A82EDFF
:103440000B2A94ED0D2A94ED143A34EE204A82EDC5
:103450000A4A94ED154A72EE430A25EE205A35EEDB
:10346000445A26EE055A25EE075A84ED165A25EEE3
:10347000085A33EE053A84ED143A26EE033A23EE69
:10348000073A23EE083A34EE033A84ED153A84ED18
:10349000173A82ED0E2A82ED0F3A20EE024A21EE13
:1034A000035A20EE033A21EE022A33EE422A9CED23
:1034B000003A40F25C1134EE054AC2F2000182ED9E
:1034C000114A81ED003A81ED014A33EE443A91ED23
:1034D000054A91ED095A23EE044A9FED766A34EECF
:1034E000054A9FED757AB4EE464A84ED100A82EDE6
:1034F0000C1A82ED0D0A82ED122A82ED131A82ED6A
:10350000140A81ED023AF1EE10FAB8BFB0EE464A65
:10351000B4EE474AF1EE10FAC8BFB0EE474AD1ED1B
:10352000061ACB6875EE440A81ED033A23EE213A80
:1035300033EE603A35EE033A92ED1A5AC1ED080ABD
:10354000D2ED1E0A22EE055A30EEC55A0B6181ED0E
:10355000093A0023B1EE423AB4EE465A82ED034AEC
:10356000536582ED162A82ED173AF1EE10FAB8BFD4
:10357000B0EE465AB4EE475AF1EE10FAC8BFB0EEBC
:10358000475A92ED1B7A30EEC56A22EE472A32EE98
:10359000462A30EE822A106E82ED183A82ED1E2AFB
:1035A00082ED051A82ED060A20EE042A21EE053A84
:1035B00020EE050A21EE041A31EE000A82ED010A1E
:1035C0009FED3E0A32EE432A82ED002A84ED052A61
:1035D00022EE001AB6EE000A9FED392A21EE001AFB
:1035E000506632EE413A42F6344031EE021ABCEEF9
:1035F000C33AC4F20100BCEEC11A82ED1D6A82ED2D
:10360000045A80ED003A80ED011AA068B0F5C87F39
:103610007FF47BAE94ED031A9FED2A2A81ED0B1AFD
:1036200032EE411A91ED0F2A91ED134A21EE022A52
:10363000002032EE042ABFEE085AC4F22020B4EE75
:10364000452A886281ED0C1A91ED103AF1EE10FADC
:10365000B8BFB0EE452AB7EE085AB4EE452AF1EEEF
:1036600010FAC8BFB0EE452A486B34EE425A81EDDD
:103670000D1A21EE031A31EE451A34EE011A22EE2C
:10368000000A886381ED125A81ED131A8CED000A4D
:10369000A360BDEC028B10BD000080393333534072
:1036A0003333D3BF000078426ABC543F17B7513858
:1036B00063149D43CDCC4CBFCDCC4C3F00D00446D1
:1036C00000D08445000020427047000090F8801030
:1036D000012904BF022070472421C0F88410026829
:1036E0001168136823F00103136021F000530021D7
:1036F000416613602022C0F8842080F880100846BC
:1037000070470000B0B590F88020012A04BF022065
:10371000B0BD2422C0F884200268D0F864E0D2F85A
:1037200000C01368BEF1000F23F00103136093681B
:1037300023F0606341EA0301916019D093689168B6
:1037400044F6E00E490FC0F6000E44F6E8051EF8F8
:103750000140C0F60005695CC3F34263E400B4FBBA
:10376000F1F11EF80340EB5CE500B5FBF3F301E07B
:1037700001210123A0F86A102021A0F86830C2F8C6
:1037800000C0C0F88410002180F880100846B0BD49
:10379000B0B590F88020012A04BF0220B0BD2422D9
:1037A000C0F884200268D0F864E0D2F800C0136842
:1037B000BEF1000F23F001031360936823F0604310
:1037C00041EA0301916019D09368916844F6E00ED4
:1037D000490FC0F6000E44F6E8051EF80140C0F699
:1037E0000005695CC3F34263E400B4FBF1F11EF829
:1037F0000340EB5CE500B5FBF3F301E0012101239D
:10380000A0F86A102021A0F86830C2F800C0C0F803
:103810008410002180F880100846B0BDB0B582B099
:10382000B0B10446D0F8840028B9002084F88000A4
:10383000204600F059F82420C4F88400206801686C
:1038400021F001010160204600F0ACFC012803D109
:10385000012002B0B0BD00BFA06A10B1204600F048
:103860002DFC2068416821F490414160816821F07D
:103870002A018160016841F0010101600020C4F863
:103880008C00FDF769FF216805460A6812070CD510
:103890006FF07E4C20464FF4001100222B46CDF8ED
:1038A00000C000F0D7FD78B92168086840070FD53F
:1038B0006FF07E4C20464FF4800100222B46CDF85D
:1038C00000C000F0C7FD18B1032002B0B0BD00BFBA
:1038D0002020C4F88400C4F888000020E06684F842
:1038E000800002B0B0BD0000B0B598B0044602A898
:1038F0000025043040211795CDE91555CDE9135524
:10390000FCF752FD206848F20001C4F20001884231
:1039100002D018B0B0BD00BF2020029002A80795C9
:10392000FEF774F8002818BFFCF77AFE41F24C004D
:10393000C4F20200016941F001010161016901F075
:10394000010101910199016841F0010101600068E4
:10395000022100F00100019001980C201491002137
:103960001390CDE91511179013A94FF09040FDF772
:10397000FFFD18B0B0BD0000FEE7000010B58CB030
:1039800040F2AC10C2F200004FF0A04100244FF40E
:10399000403280E816004FF4807101234FF0040C90
:1039A000818303210B94CDE90944CDE90744CDE996
:1039B0000544CDE90344CDE90144C0E90344C0E92D
:1039C000053C016280F82440C0E90B4480F838309F
:1039D000C46380F84040FDF7CFF8002818BFFCF71B
:1039E0001FFE40F2AC10C2F2000009A90994FCF7D6
:1039F00087FE002818BFFCF713FE0220C0F23040FB
:103A0000019006207F210290002004910421039060
:103A1000CDE9051040F2AC10C2F2000001A9FCF79C
:103A2000CFFE002818BFFCF7FBFD0420C0F66000A5
:103A300001900C20029040F2AC10C2F2000001A9EB
:103A4000FCF7BEFE002818BFFCF7EAFD2020C1F2FB
:103A5000F04001901220029040F2AC10C2F200003F
:103A600001A9FCF7ADFE002818BFFCF7D9FD0CB08A
:103A700010BD000080B58CB068463021FCF794FC86
:103A800040F2182040F60001C2F20000C5F2000129
:103A90000160FDF781FB002818BFFCF7C1FD022083
:103AA000009000200121ADF80400CDE90200CDE92D
:103AB0000400CDE9061040F21820C2F20000694669
:103AC0000022FDF775FA002818BFFCF7A9FD0CB01D
:103AD00080BD000080B582B041F24800C4F202000F
:103AE0000168022241F004010160016801F0040153
:103AF00001910199016841F0010101600068022112
:103B000000F00100009000980B20FDF79BFE0B20B9
:103B100002B0BDE88040FDF785BE000070B586B0FC
:103B2000002541F24C00CDE90455C4F202000168C1
:103B3000002241F0040101600168202601F0040127
:103B400000910099016841F020010160016801F0D5
:103B5000200100910099016841F0010101600168B4
:103B600001F0010100910099016841F0020101603A
:103B70000068202100F00200009000984FF0904073
:103B8000FDF7E4FD4FF4005001904FF48810CDE9AB
:103B9000020540F6000001ACC4F600002146FDF726
:103BA000E7FC0120CDE902054FF090402146019647
:103BB0000495FDF7DDFC06B070BD000080B540F255
:103BC0008C2048F20001C2F20000C4F20001002380
:103BD0004FF00C0C4FF4E13280E80E00C0E90333E3
:103BE000C0E905C3C0E908338362FFF717FE002868
:103BF00018BFFCF715FD40F28C20C2F20000002136
:103C0000FFF7C6FD002818BFFCF70AFD40F28C2024
:103C1000C2F200000021FFF775FD002818BFFCF775
:103C2000FFFC40F28C20C2F20000FFF74FFD00289D
:103C300008BF80BDBDE88040FCF7F2BC10B59CB069
:103C4000002401A834211B94CDE91944CDE9164480
:103C5000CDE91444CDE91244CDE91044CDE90E4438
:103C6000FCF7A2FB40F21C3042F60041C2F2000019
:103C7000C4F201012022C0E9001400F1080142F25F
:103C800034131CC1C0E90544FEF71EFD002818BF0F
:103C9000FCF7C6FC4FF48050189040F21C30C2F282
:103CA000000018A9FEF7E6FD002818BFFCF7B8FCD5
:103CB00040F21C30C2F20000FFF720FA002818BFC3
:103CC000FCF7AEFC40F21C300024C2F2000015A943
:103CD000CDE915441794FEF7A3FC002818BFFCF7A4
:103CE0009FFC60200E904FF4FA70CDE90F0440F273
:103CF0001C30C2F200000EA90022CDE91144CDE92A
:103D00001344FFF719F8002818BFFCF789FC40F2AC
:103D10001C30C2F200000EA90422FFF70DF80028A3
:103D200018BFFCF77DFC00204FF40051CDE90610D0
:103D30004FF000710590CDE90300CDE90100CDE918
:103D40000800CDE90A10CDE90C0040F21C30C2F2A7
:103D5000000001A9FEF7FEFB002818BFFCF760FC7D
:103D600040F21C30C2F20000FEF78EFF1CB010BD06
:103D700080B588B040F268300021C2F2000040F205
:103D800000420791CDE905110391CDE90111C4F27B
:103D9000000201618021A9234FF0200C4FF0310E69
:103DA00080E80C508161FEF78FFC002818BFFCF7FB
:103DB00037FC4FF48050049040F26830C2F20000AB
:103DC00004A9FEF757FD002818BFFCF729FC0020C6
:103DD0000190039040F26830C2F2000001A9FEF7A2
:103DE0001FFC002818BFFCF71BFC08B080BD0000BA
:103DF000FEE70000FEE7000010B52DED0A8B40F253
:103E00007804C2F2000494ED063A9FED405A9FED0B
:103E10003EAA94ED094A30EE430A20EE050A20EE50
:103E20008A2A30EE440A22EE000A33EE00BA94EDFC
:103E3000071A22EE0B0A34EE000A84ED090AB0EEEE
:103E4000410AB0EE608A84ED06BA00F05BFC94EDA6
:103E5000071A94ED09CAB0EE409AB0EE410A00F09C
:103E600005FC2CEE000A2BEE091A30EE412A94EDE7
:103E7000010A9FED271A32EE400A20EE010A9FED5B
:103E8000251A94ED083A22EE011A31EE000A9FED50
:103E9000221A33EE000AB4EE410AF1EE10FA84ED74
:103EA000002A84ED080A84ED012A06DC9FED1B1A26
:103EB000B4EE410AF1EE10FA03DAB0EE410A84EDF5
:103EC000081A94ED071A30EE0A0A20EE080A9FED50
:103ED000152A31EE000A9FED121AB4EE420A30EEB6
:103EE000013AF1EE10FAC8BFB0EE430AB4EE410A4F
:103EF00030EE022AF1EE10FAB8BFB0EE420A84EDBD
:103F0000070ABDEC0A8B10BD63149D43F4FDB43F5A
:103F10000E2D123F62104B42D2537B42D2537BC2D2
:103F2000DB0FC9C0DB0FC94040F2E0004DF20A735D
:103F300040F25C12C2F2000000214FF07C5CC3F63C
:103F4000A333C2F20002C0E91511C165C2E905C37D
:103F5000C0E9191CC0E91B31C0E903114CF6CD4082
:103F60004BF21773C3F6CC50C3F6D103D161916005
:103F7000C2E90F03516470477047000070470000AA
:103F8000FDF7F0BB4EF68850CEF20000016841F418
:103F9000700101607047000040F26830C2F200001A
:103FA000FEF76ABD40F2B430C2F20000FEF764BD15
:103FB00080B540F2FF7C0268C4F2000C604521DD50
:103FC00040F60003C4F20003984224D043F20043B9
:103FD000C4F2010398421ED042F60043C4F201032A
:103FE000984218D043F2FF33C4F2010398421CDC1C
:103FF000604529DCB0F1804F3CD040F20043C4F270
:10400000000335E0B0F1804F05D040F20043C4F228
:1040100000039842E6D14B6822F070021A4343F243
:10402000FF33C4F201039842E2DD44F2FF33C4F2ED
:104030000103984212DC43F20043C4F201039842A8
:1040400018D044F2000311E040F60003C4F200036C
:1040500098420FD042F6004308E000BF44F6000348
:10406000C4F20103984205D044F20043C4F20103B4
:10407000984203D1CB6822F440721A434B6922F074
:10408000800E8A6843EA0E03D1F800C00360C26262
:10409000A0F18042A2F596324FEAB222072AC0F878
:1040A00028C007D8012303FA02F212F0E50F1CBF63
:1040B000096901630121416180BD000080B5816A09
:1040C000CA070DD18A0716D44A071FD40A0728D475
:1040D000CA0631D48A063AD44A0658D542E000BF0F
:1040E0000268D0F82CC0536823F4003343EA0C0371
:1040F00053608A07E8D50268D0F830C0536823F4CB
:10410000803343EA0C0353604A07DFD50268D0F8D6
:1041100034C0536823F4802343EA0C0353600A0736
:10412000D6D50268D0F838C0536823F4004343EA78
:104130000C035360CA06CDD50268D0F83CC0936822
:1041400023F4805343EA0C0393608A06C4D50268C3
:10415000D0F840C0936823F4005343EA0C03936003
:104160004A0614D50268D0F844C05368BCF5801FD5
:1041700023F4801343EA0C03536008D1D2F804C03F
:10418000D0F848E02CF4C00343EA0E03536009065C
:1041900058BF80BD0168C06C4A6822F400221043F9
:1041A000486080BD70B504462269D4E902130068F6
:1041B0000A436169E6691143026846F6F315CCF6D5
:1041C000FF7531432A4011430160416848F2000CF9
:1041D00021F4405119434160A269C4F2000C6045CA
:1041E0001CBF216A0A4381684FF2FF43C1F2FF13EB
:1041F000194011438160C16AD4F824E021F00F0115
:1042000041EA0E01C16244F6FF31C4F20001884266
:104210004FF0100314DD44F60041C4F2000188425F
:1042200022D0604528D043F60001C4F20101884243
:1042300038D141F28801C4F202010B6881A22DE05D
:1042400044F20041C4F2000188421DD044F600014E
:10425000C4F20001884225D141F28801C4F2020172
:1042600009680B0916E000BF41F28801C4F202019F
:1042700009688B090EE000BF41F28801C4F2020117
:1042800009688B0A06E000BF41F28801C4F202010E
:1042900009688B0844F6D002C0F6000203F003015F
:1042A00052F82130604542F20040C0F2F40015D0CF
:1042B000B6F5004F24D1082B4FF0010100F2B98070
:1042C000DFE803F0066270B768B7B7B76E0000BFEB
:1042D000FDF762FE002840F05A805FE0082B4FF0A7
:1042E000010100F2A680DFE803F005A425A41DA4C7
:1042F000A4A42300FDF750FEC0B1D4F824E019E0D7
:10430000082B4FF0010100F29480DFE803F0056B09
:104310007992719292927700FDF73EFE002864D167
:104320006AE000BFFDF764FE0028E6D1002180E0CE
:104330004FF4004044F6B801C0F6000131F81E10F9
:104340006268B0FBF1F002EB420188424FF00101DC
:104350006FD3130398426CD8010E000210EB520089
:1043600041F100010023FBF7A7FF4FF6FF42A0F544
:104370004071C0F20F02914204D82168C860002148
:1043800057E000BF012154E0FDF71CFE30B1D4F826
:1043900024E007E0FDF72CFE0028F8D1002148E0DA
:1043A0004FF4004044F6B801C0F6000131F81E1089
:1043B0006268B0FBF1F0510801EB4000B0FBF2F095
:1043C0004FF6EF72A0F11001914209D84FF6F0714B
:1043D0000140C0F3420022680844D060002128E078
:1043E000012126E0FDF7EEFD30B1D4F824E007E02E
:1043F000FDF7FEFD0028F8D100211AE04FF400403F
:1044000044F6B801C0F6000131F81E104FF6EF7205
:10441000B0FBF1F0616800EB5100B0FBF1F0A0F1EE
:104420001001914204D82168C860002101E000BF5A
:1044300001214FF00110A066002208462267626742
:1044400070BD00BF01000000040000000200000079
:10445000080000002DE9F041044600681546C269D5
:104460000E461140891BB1FA81F14909A94240F079
:104470009C80DDF81880B8F1000F27D018F10101F9
:104480007CD100BFC1693140891BB1FA81F1490972
:10449000A94240F08A80C1693140891BB1FA81F19B
:1044A0004909A94240F08180C1693140891BB1FAB4
:1044B00081F14909A94278D1C1693140891BB1FA1A
:1044C00081F14909A942DDD06FE000BFFDF744F951
:1044D000206850E8000F216820F4D07041E8000205
:1044E000BAB3206850E8000F216820F4D07041E88A
:1044F000000272B3206850E8000F216820F4D070E9
:1045000041E800022AB3206850E8000F216820F437
:10451000D07041E80002002ADAD11AE0206850E8A1
:10452000020F216820F0010041E80202DAB12068A0
:1045300050E8020F216820F0010041E8020292B128
:10454000206850E8020F216820F0010041E80202D3
:104550004AB1206850E8020F216820F0010041E8CC
:104560000202002ADAD12020C4F88400C4F88800AE
:10457000002084F880000320BDE8F0811F4600BFC2
:10458000FDF7EAF8C01B4045A2D82068016849073A
:1045900044BFC1695FEA01510AD4C0693040801B41
:1045A000B0FA80F04009A842EAD00020BDE8F081CE
:1045B0004FF40061016200BF50E8000F216820F451
:1045C000D07041E80002C2B3206850E8000F2168B3
:1045D00020F4D07041E800027AB3206850E8000F60
:1045E000216820F4D07041E8000232B3206850E81E
:1045F000000F216820F4D07041E80002EAB1206881
:10460000DAE700BF206850E8020F216820F00100BF
:1046100041E80202DAB1206850E8020F216820F078
:10462000010041E8020292B1206850E8020F2168BF
:1046300020F0010041E802024AB1206850E8020F70
:10464000216820F0010041E80202002ADAD120208E
:10465000C4F88400C4F88800C4F88C00002084F8F2
:1046600080000320BDE8F081FEE700009FED221AE4
:104670009FED222A20EE010AB5EE001A30EE010A63
:10468000BDEEC01A11EE100AB5EE400AF1EE10FAB6
:10469000B8BF013801EE100AB8EEC11A30EE410A77
:1046A00020EE020ABDEEC01A9FED152A11EE100A87
:1046B000002130EE021AB1EB502F44F6F0011CBF7E
:1046C0000020B0EE410AC0F6000101EE100A01EB35
:1046D0008001B8EE411A30EE410A91ED001A91EDD9
:1046E000012AB7EE003A33EE403A23EE011A20EEEB
:1046F000020A31EE000A704783F9223E00000044AE
:10470000000000C49FED201A9FED202A20EE010A30
:10471000BDEEC01A11EE100AB5EE400AF1EE10FA25
:10472000B8BF013801EE100AB8EEC11A30EE410AE6
:1047300020EE020ABDEEC01A9FED152A11EE100AF6
:10474000002130EE021AB1EB502F44F6F0011CBFED
:104750000020B0EE410AC0F6000101EE100A01EBA4
:104760008001B8EE411A30EE410A91ED001A91ED48
:10477000012AB7EE003A33EE403A23EE011A20EE5A
:10478000020A31EE000A704783F9223E000000441D
:10479000000000C494B0FCF7F3FF00240020CDE932
:1047A0000B44CDE90944CDE907440594CDE9034420
:1047B000CDE90144FDF782F84FF480710991402161
:1047C0000A91042102200F9155210690CDE90D0098
:1047D000CDE91010CDE9120006A8FDF747FC28B17D
:1047E000EFF3108072B600BFFEE700BF0F2001900C
:1047F0000320CDE9020401A80421CDE90444FDF71A
:104800003BFA28B1EFF3108072B600BFFEE700BF9D
:10481000FFF784F9FFF75EF9FFF7B0F8FFF7CEF97D
:10482000FFF70CFAFFF7A4FAFFF724F9FFF77CFB78
:1048300040F2AC14C2F2000420467F21FBF7F6FEE2
:1048400040F2D801C2F2000120460322FCF732FBFD
:1048500040F26830C2F20000FDF7BCFF40F21C34A9
:10486000C2F2000420460021FEF77EFC204604210F
:10487000FEF77AFC40F21820C2F200000021FCF79B
:10488000CFFC00BFFEE7F1EE100A4FF6FF71C0F259
:10489000C03120EA010040F04070E1EE100A70479C
:1048A00000000000000000000102030406070809E0
:1048B00000000000010203040100020004000600E1
:1048C00008000A000C0010002000400080000001D9
:1048D00000000000040000000200000008000000CA
:1048E000010101030701000008040204080101019D
:1048F00000000000920E493CB10AC93C2BC3163D92
:104900002EFB483D752B7B3D04A9963D80B6AF3DFF
:1049100036BDC83D2FBCE13D73B2FA3D87CF093E9D
:104920008340163EB5AB223EA2102F3ECF6E3B3EDB
:10493000C2C5473E0115543E135C603E7F9A6C3EF3
:10494000CCCF783EC07D823E938E883E229A8E3EAA
:1049500032A0943E86A09A3EE59AA03E128FA63ED3
:10496000D47CAC3EEF63B23E2A44B83E491DBE3E05
:1049700015EFC33E53B9C93ECA7BCF3E4136D53E43
:1049800080E8DA3E4F92E03E7533E63EBBCBEB3E2D
:10499000EA5AF13ECBE0F63E275DFC3EE4E7003FFD
:1049A0003D9C033F824B063F9BF5083F6B9A0B3FB4
:1049B000DA390E3FCDD3103F2A68133FD9F6153FA1
:1049C000C07F183FC6021B3FD17F1D3FCBF61F3F64
:1049D0009967223F25D2243F5636273F1594293F19
:1049E0004AEB2B3FDE3B2E3FBB85303FC9C8323FF1
:1049F000F304353F233A373F4268393F3B8F3B3F13
:104A0000F9AE3D3F67C73F3F70D8413F01E2433FAA
:104A100003E4453F65DE473F12D1493FF8BB4B3FBA
:104A2000029F4D3F207A4F3F3D4D513F4918533F24
:104A300031DB543FE595563F5348583F6AF2593FA2
:104A40001A945B3F532D5D3F05BE5E3F2146603F9C
:104A500097C5613F5A3C633F59AA643F880F663F40
:104A6000D86B673F3CBF683FA7096A3F0C4B6B3F61
:104A70005E836C3F93B26D3F9ED86E3F73F56F3F80
:104A80000809713F5213723F4714733FDD0B743FA7
:104A90000BFA743FC6DE753F07BA763FC58B773F8A
:104AA000F853783F9812793F9DC7793F02737A3F58
:104AB000BE147B3FCDAC7B3F283B7C3FC9BF7C3FD6
:104AC000AC3A7D3FCCAB7D3F23137E3FB0707E3F41
:104AD0006DC47E3F580E7F3F6D4E7F3FAB847F3F5E
:104AE0000FB17F3F97D37F3F43EC7F3F11FB7F3F69
:104AF0000000803F11FB7F3F43EC7F3F97D37F3F18
:104B00000FB17F3FAB847F3F6D4E7F3F580E7F3F9D
:104B10006DC47E3FB0707E3F23137E3FCCAB7D3FA4
:104B2000AC3A7D3FC9BF7C3F283B7C3FCDAC7B3F4F
:104B3000BE147B3F02737A3F9DC7793F9812793F3D
:104B4000F853783FC58B773F07BA763FC6DE753F8F
:104B50000BFA743FDD0B743F4714733F5213723FDF
:104B60000809713F73F56F3F9ED86E3F93B26D3F5A
:104B70005E836C3F0C4B6B3FA7096A3F3CBF683FAD
:104B8000D86B673F880F663F59AA643F5A3C633F22
:104B900097C5613F2146603F05BE5E3F532D5D3F97
:104BA0001A945B3F6AF2593F5348583FE595563F88
:104BB00031DB543F4918533F3D4D513F207A4F3F21
:104BC000029F4D3FF8BB4B3F12D1493F65DE473F47
:104BD00003E4453F01E2433F70D8413F67C73F3F91
:104BE000F9AE3D3F3B8F3B3F4268393F233A373F69
:104BF000F304353FC9C8323FBB85303FDE3B2E3F13
:104C00004AEB2B3F1594293F5636273F25D2243FA8
:104C10009967223FCBF61F3FD17F1D3FC6021B3F46
:104C2000C07F183FD9F6153F2A68133FCDD3103FF8
:104C3000DA390E3F6B9A0B3F9BF5083F824B063FDC
:104C40003D9C033FE4E7003F275DFC3ECBE0F63EA2
:104C5000EA5AF13EBBCBEB3E7533E63E4F92E03E67
:104C600080E8DA3E4136D53ECA7BCF3E53B9C93ED5
:104C700015EFC33E491DBE3E2A44B83EEF63B23E27
:104C8000D47CAC3E128FA63EE59AA03E86A09A3E0A
:104C900032A0943E229A8E3E938E883EC07D823E04
:104CA000CCCF783E7F9A6C3E135C603E0115543E3B
:104CB000C2C5473ECF6E3B3EA2102F3EB5AB223E53
:104CC0008340163E87CF093E73B2FA3D2FBCE13DCB
:104CD00036BDC83D80B6AF3D04A9963D752B7B3DE2
:104CE0002EFB483D2BC3163DB10AC93C920E493CF0
:104CF00000000000920E49BCB10AC9BC2BC316BD0E
:104D00002EFB48BD752B7BBD04A996BD80B6AFBDFB
:104D100036BDC8BD2FBCE1BD73B2FABD87CF09BE99
:104D2000834016BEB5AB22BEA2102FBECF6E3BBED7
:104D3000C2C547BE011554BE135C60BE7F9A6CBEEF
:104D4000CCCF78BEC07D82BE938E88BE229A8EBEA6
:104D500032A094BE86A09ABEE59AA0BE128FA6BECF
:104D6000D47CACBEEF63B2BE2A44B8BE491DBEBE01
:104D700015EFC3BE53B9C9BECA7BCFBE4136D5BE3F
:104D800080E8DABE4F92E0BE7533E6BEBBCBEBBE29
:104D9000EA5AF1BECBE0F6BE275DFCBEE4E700BFF9
:104DA0003D9C03BF824B06BF9BF508BF6B9A0BBFB0
:104DB000DA390EBFCDD310BF2A6813BFD9F615BF9D
:104DC000C07F18BFC6021BBFD17F1DBFCBF61FBF60
:104DD000996722BF25D224BF563627BF159429BF15
:104DE0004AEB2BBFDE3B2EBFBB8530BFC9C832BFED
:104DF000F30435BF233A37BF426839BF3B8F3BBF0F
:104E0000F9AE3DBF67C73FBF70D841BF01E243BFA6
:104E100003E445BF65DE47BF12D149BFF8BB4BBFB6
:104E2000029F4DBF207A4FBF3D4D51BF491853BF20
:104E300031DB54BFE59556BF534858BF6AF259BF9E
:104E40001A945BBF532D5DBF05BE5EBF214660BF98
:104E500097C561BF5A3C63BF59AA64BF880F66BF3C
:104E6000D86B67BF3CBF68BFA7096ABF0C4B6BBF5D
:104E70005E836CBF93B26DBF9ED86EBF73F56FBF7C
:104E8000080971BF521372BF471473BFDD0B74BFA3
:104E90000BFA74BFC6DE75BF07BA76BFC58B77BF86
:104EA000F85378BF981279BF9DC779BF02737ABF54
:104EB000BE147BBFCDAC7BBF283B7CBFC9BF7CBFD2
:104EC000AC3A7DBFCCAB7DBF23137EBFB0707EBF3D
:104ED0006DC47EBF580E7FBF6D4E7FBFAB847FBF5A
:104EE0000FB17FBF97D37FBF43EC7FBF11FB7FBF65
:104EF000000080BF11FB7FBF43EC7FBF97D37FBF14
:104F00000FB17FBFAB847FBF6D4E7FBF580E7FBF99
:104F10006DC47EBFB0707EBF23137EBFCCAB7DBFA0
:104F2000AC3A7DBFC9BF7CBF283B7CBFCDAC7BBF4B
:104F3000BE147BBF02737ABF9DC779BF981279BF39
:104F4000F85378BFC58B77BF07BA76BFC6DE75BF8B
:104F50000BFA74BFDD0B74BF471473BF521372BFDB
:104F6000080971BF73F56FBF9ED86EBF93B26DBF56
:104F70005E836CBF0C4B6BBFA7096ABF3CBF68BFA9
:104F8000D86B67BF880F66BF59AA64BF5A3C63BF1E
:104F900097C561BF214660BF05BE5EBF532D5DBF93
:104FA0001A945BBF6AF259BF534858BFE59556BF84
:104FB00031DB54BF491853BF3D4D51BF207A4FBF1D
:104FC000029F4DBFF8BB4BBF12D149BF65DE47BF43
:104FD00003E445BF01E243BF70D841BF67C73FBF8D
:104FE000F9AE3DBF3B8F3BBF426839BF233A37BF65
:104FF000F30435BFC9C832BFBB8530BFDE3B2EBF0F
:105000004AEB2BBF159429BF563627BF25D224BFA4
:10501000996722BFCBF61FBFD17F1DBFC6021BBF42
:10502000C07F18BFD9F615BF2A6813BFCDD310BFF4
:10503000DA390EBF6B9A0BBF9BF508BF824B06BFD8
:105040003D9C03BFE4E700BF275DFCBECBE0F6BE9E
:10505000EA5AF1BEBBCBEBBE7533E6BE4F92E0BE63
:1050600080E8DABE4136D5BECA7BCFBE53B9C9BED1
:1050700015EFC3BE491DBEBE2A44B8BEEF63B2BE23
:10508000D47CACBE128FA6BEE59AA0BE86A09ABE06
:1050900032A094BE229A8EBE938E88BEC07D82BE00
:1050A000CCCF78BE7F9A6CBE135C60BE011554BE37
:1050B000C2C547BECF6E3BBEA2102FBEB5AB22BE4F
:1050C000834016BE87CF09BE73B2FABD2FBCE1BDC7
:1050D00036BDC8BD80B6AFBD04A996BD752B7BBDDE
:1050E0002EFB48BD2BC316BDB10AC9BC920E49BCEC
:1050F0000000008018510008000000201800000087
:10510000140200083051000818000020F0090000C7
:105110003002000800000000100000000100000044
:10512000CDCC4C3EF4FDB43F0000803F0024F400A1
:04000005080001D915
:00000001FF
